:020000001028C6
:10000800FE00030E83120313A7000408A8000A08C1
:10001800A9007F08AA00282B1128FF308316B700F3
:10002800B800B900BA00BB00BC00BD00BE00BF00EC
:10003800C000C100C200C300C400C500C600C7009C
:100048004430831384005D309F278312E0018301CD
:100058002D288B010730831681002E3085008601FC
:10006800831285018601EB3081000430920007304D
:100078009F00B527A727A0308B00AF27083083162D
:10008800B301AF01B001B401B40AB6002430831241
:10009800DF00213083125F06031D6228DF01580349
:1000A80003195E28A030D801D80A8316AF000F3094
:1000B800B000FC28DD01DE01D801FC281F305F06F6
:1000C80003196E2820305F0603196E2822305F0658
:1000D800031DCB28AF27601C952822305F06031923
:1000E80095281F305F06031D8028083083163606C2
:1000F8000319802808308B28203083125F06031DDF
:100108004D2802308316360603194D280230B401F3
:10011800B40AB6008312DF014810BB2783163608DD
:10012800FB28223048105F060319A82883163308D5
:10013800B100B2010310B10DB20D0310B10DB20D33
:100148000310B10DB20DAC2880308316B100B20196
:100158001F3083125F06031DB3280130B428003016
:10016800B500831631083E244B21DF01601CC028EE
:100178008316B401B40AC428562159273C21A7265E
:1001880008308316B60035274818C828FA282330BF
:100198005F06031DDE28AF27DF01023060148316D7
:1001A800B60083124810BB2702300E278316B4010D
:1001B800B40AFC2824305F06031DFC28DF018316DF
:1001C8003408031DE8285F22AF278030B5013E249C
:1001D8004B21601CF3288316B401B40AF728562172
:1001E80059273C21A72608308316B60008300E2769
:1001F8008312C71F0F29601C09290230831636068F
:10020800031D09290830B6000B29B527882783164E
:1002180036080E272929471F1729B527D323831600
:1002280036080E2729298316340803192929B40109
:10023800B5272030B200013047272030B200023005
:1002480047272030B2000330472783162F08300491
:1002580003193A2901308312AD01AD0A6A2701302A
:100268008316AF020030031CB003B002A7274D2845
:10027800831635088312C3000310C30C0310C30C84
:100288000310C30C43088316B30033080800831611
:10029800B500803A83120313031D54296014080023
:1002A80060100800831635088312B0000830B100CA
:1002B800C034481C08004908A500441C72292508B8
:1002C8003B25003A8312031303196F29C3304410E6
:1002D800C414C40508004810C7170800C41CB32973
:1002E800601C82292508F000CC306C25831203138A
:1002F8004408C3390438C400C4100800440CA000E2
:10030800200C0F39A1000830210203180800440C02
:10031800A000200C0F39031D95292508F000553041
:100328006C25831203132508F000440CA000200C50
:100338000F39C03E8400831300086C258312031311
:10034800440C4F2244082006C3392006C400440C3C
:10035800A000200C0F39083A031D08008029441F0B
:10036800BD292508F00044306C258312031344137B
:100378000800450846040319CC290130C50200309D
:10038800031CC603C60245084604031944140800A2
:10039800471CD6292508F000BE306C2583120313AC
:1003A80047100800C71C4D2A572203180800A2014D
:1003B800F42957220318F829470CA000200C0F39FC
:1003C800B73E84002508C8258313800083120313D1
:1003D800470C4F2247082006C3392006C700A20A47
:1003E80003302202031CDD29470CA000200C0F3922
:1003F800093A031D08000830F000B730EF258316CE
:100408003F0603190A2A8312C717492A3708831295
:10041800A300831638088312A4002308DB000F30DA
:10042800DB050A30F600F7015B08F0000630F10141
:10043800F200F301DD267008023EF8007108031887
:10044800013E003EF90083247608DB000F30A30E3E
:10045800A3052408DA008030DA05F030A40EA405DC
:100468007030A4052308A4045A080319472A24084D
:100478007F3CDC005B080A3CDB000A3A031D492A82
:10048800DB01DC0A492A2408DC00C710481047179A
:10049800080048100800A000200C0F39A000A00A8E
:1004A800A00DA00D0800470CA000200C0F39A100DA
:1004B80009302102080083124810D80AB52783168C
:1004C800AE01AB01AB0AA801AA01AA0A83125F0810
:1004D8000319782A831628080319782A8312DF015A
:1004E8008316A801AA01AA0A1F3083125F06031DFA
:1004F8008A2ADF0183162E080319842AAE03862A66
:100508000F30AE008316AA01AA0A092B20305F0615
:10051800031D982ADF010F3083162E020318962A2E
:10052800AE0A862AAE01862A22305F06031DA02A5B
:10053800DF01B527A727252B23305F06031DF02AE7
:1005480083162B0BF02A8312DF01BB270230831698
:10055800A900C824003A031DB82A08308316A90048
:10056800C824003A0319EB2ABB27831629088312EB
:10057800AD00333003258316AC01BB2783162C0846
:10058800A03E840029089C25831380000830831628
:10059800AC0A2C02031CC12A07308312AD00A0301C
:1005A800112683162706031DEB2ABB2783162E0860
:1005B8008312B9000310B90D0310B90D0310390DDA
:1005C800B0000830B100A0302227BB27862A882730
:1005D8008316A801A80A092B243083125F06831604
:1005E800031D0A2B2B08031D092B8312DF01831619
:1005F800AD012D08A03E8400FF3083138000083031
:10060800AD0A2D02031CFD2AD92A83162A080319CC
:100618006A2AA030AA018312B50083162E08532631
:100628008316AB002E08A72683162B08031D1E2B46
:1006380001301F2B00308312AD0001306A27A72735
:100648006A2ABB27D80308000B1DC82B0B11EB30F7
:100658008107033055020318D50155084A3E840026
:1006680083130008AB003F398B26D9002B1F3E2B84
:1006780059153F2B591186015508013E84009627CC
:10068800A6000508343926048500D50A59088600CD
:10069800E0145D085E04031D572B5808031D5B2BEF
:1006A800831605165B2BFF30DD07031CDE03831260
:1006B800AC0154080319622BD403C72BDF01851E34
:1006C800692B19302C14D2006F2B5208031D6E2B86
:1006D8002C106F2BD203051D752B1930AC14D300C9
:1006E8007B2B5308031D7A2BAC107B2BD3035208AA
:1006F8000319822B19305206031DC72B53080319FF
:10070800892B19305306031DC72B2C080319B32B4B
:1007180056082C060319962BD001D101D7012C08B5
:10072800D600AB2B00305102963003195002031843
:10073800A12BD00A0319D10AAB2B963050065104CD
:10074800031DAB2B5708031DAB2BD701D70A570B3B
:10075800C72B5608213EDF000230D700C52B5608AC
:100768000319BD2B5708031DBD2B56081E3EDF007D
:10077800C12B02305706031DC72BD601D001D1016A
:10078800D7012830D4005D212A08FF0029088A00F3
:1007980028088400270E8300FE0E7E0E0900033011
:1007A800BB00BA005A080319DE2B2030B200033010
:1007B8004727E22B0A305C020318E42BBB03BA0379
:1007C800B8015A080319EC2B0A305C020318F02B05
:1007D80064305C02031CF22BB801B80A64305C0276
:1007E800031CF82B0130F92B0030B6000A305C02EC
:1007F800031C002C0130012C00303607B9000A30E8
:10080800AD005C086F26B20039083B02472738085C
:10081800031D152CAD01AD0A39083B026A27B80142
:10082800B80A0A30AD005C08C226DC00BA035C08CE
:10083800031DF22B3A08031908003A08BB000A30D6
:100848005B02031C2E2C3A0B2E2C0A30AD005B08E1
:10085800C226DB000A305B02031C342C0130352C25
:100868000030B7000A30AD005B086F26B2003708C9
:100878003B02472F8312C000803A031D4A2C3508DB
:100888000319482CC0014A2C7830C0004008C20027
:100898008030BE003508031D5A2C78304206031DEF
:1008A800572CC201622C0830C207622C4208031D73
:1008B800602C7830C200622C0830C202BB27420884
:1008C800B0000830B10036305927BF01BF0AC10156
:1008D8004108363E84008313000FBF010830C10A67
:1008E8004102031C6C2C3F08031D7D2C4208BE00EE
:1008F800812C42084006031D4E2C3E080800FB01CF
:10090800F71F8D2CF609F709F60A0319F70AFB01F8
:10091800FB0AF91F962CF809F909F80A0319F90ACC
:100928000130FB06FC01FD01760877040319BB2C96
:10093800FA01FA0AF71BA42C0310F60DF70D9D2CEB
:100948000310FC0DFD0D77087902031DAD2C760808
:100958007802031CB72C7608F8027708031CF90301
:10096800F9027C140310F70CF60CFA0BA42C7B0884
:100978000319C32CFC09FD09FC0A0319FD0A7D08AB
:10098800F7007C08F60008008312AE00B1003109B8
:10099800AF00310883168504063083120313AD00B7
:1009A800AD0BD42C831203132F0883168505A630AC
:1009B80083120313AD00AD0BDF2C83120313310830
:1009C80083168504153083120313AD00AD0BEA2C92
:1009D80083120313050831050319F42C0130F52C93
:1009E8000030B000953083120313AD00AD0BFA2C24
:1009F8000000831203133008031901340034AF00D8
:100A08002D08B3003309B100B2012F08B000B201BC
:100A1800301C1D2D310883168505122D132D00005D
:100A28003525163083120313AE00AE0B192D1C2D7D
:100A38002B2D310883168505163083120313AE005B
:100A4800AE0B242D272D3525292D2A2D0000083001
:100A5800831203130310B00CB20A32020318080001
:100A68000C2D831203133308831685040800F10044
:100A7800F4007409F2007408831685040630F00047
:100A8800F00B442D00007208831603138505A63069
:100A9800F000F00B4D2D0000740883160313850435
:100AA8001530F000F00B562D0000831203130508D3
:100AB80074050319612D0130622D0030F300953063
:100AC800F000F00B652D682D73080319013400340C
:100AD800F2007008F6007609F400F5017208F300D8
:100AE800F501731C812D9725792D7A2D000092250B
:100AF8001730F100F10B7E2D8A2D97251730F10064
:100B0800F10B842D9225882D892D000008300310C3
:100B1800F30CF50A750203180800752D760883167C
:100B28000313850408007408831603138505080059
:100B38008312AE00B2003209AF00B001B1012F0834
:100B480083168505A72DA82DA92D83120313320816
:100B580083168504AF2DB02D831203130310B00C38
:100B680005083205031DB017133083120313AD00B7
:100B7800AD0BBC2D0000083083120313B10A3102FB
:100B8800031CA32D30080800F100F5007509F200D8
:100B9800F301F4017208831603138505D32DD42DB0
:100BA800D52D7508831603138504DA2DDB2D031064
:100BB800F30C8312031305087505031DF31713308F
:100BC800F000F00BE52DE82D0830F40A7402031C40
:100BD800CE2D73080800F100F5010C2E7108840071
:100BE80083130008F200F10AF40175087206F30095
:100BF8000130F3050310F50C0310F20C7308031908
:100C0800072E8C30F5060830F40A7402031CF92DFF
:100C1800F003700FF22D75080800B000B2012D2EF8
:100C2800300884000008AE00B00AB10132082E0670
:100C3800AF000130AF050310B20C0310AE0C2F0843
:100C48000319282E8C30B2060830B10A3102031C71
:100C58001A2EAD032D0F142E320808008D2E8E2E5D
:100C68008F2E902E912E922E932E942E952E962E78
:100C78009A2E9A2E9A2E9A2E972E9A2E9A2E9A2E2F
:100C88009A2E9A2E9A2E9A2E9A2E9A2E982E9A2E1E
:100C98009A2E9A2E9A2E9A2E9A2E9A2E992E831240
:100CA800B700B6000310B60D0310B60D0310360DCD
:100CB800B0000830B10035085927B80138083507A1
:100CC800B60084008313000F00340830B80A3802D5
:100CD80003180134622EAF000830B000B1012F08AC
:100CE800AE0007300310AE0CFF3E0310031D772E35
:100CF800310D2E04B1000310AF0D2D083102031C75
:100D0800872E2D08B102B00B732E31080800F000B1
:100D18009B2EDB341834B334BA347834EA34EB34E9
:100D28009834FB34FA34E334213420340034700826
:100D38008400213004020318003406308A0032305F
:100D48000407820008008312B600B5270A30B60AE5
:100D58003602031CBD2E0A30AD003608C226B2008A
:100D6800033047270A30AD0036086F26B20002303C
:100D7800C02E3608B20003304727A72FAE00B001B7
:100D88002D080319DB2EAF01AF0AAD1BCE2E0310C1
:100D9800AD0DC82E0310B00D2D082E02031CD82E41
:100DA8002D08AE0230140310AD0CAF0BCE2E300858
:100DB8000800F401F501701CE72E7208F407031807
:100DC800F50A7308F5070310F20DF30D0310F10C83
:100DD800F00C70087104031DDF2E7508F10074080B
:100DE800F0000800AE000B08AF008B132E08831626
:100DF8009B0083122D0883169A001C1555309D0000
:100E0800AA309D009C141C119C18082F83122F08CF
:100E18008B0008008312AD00C3304414C414C40509
:100E280078304417C500C330C6014714C714C70536
:100E3800C71347132D08C90048140800B300B401AC
:100E48003108340203180800BB2734083307B200FE
:100E5800840083130008AD0034083007F626B40A6E
:100E6800242F8312AD00C3304414C410C4054413A6
:100E7800C501C6014710C710C705C71347132D087A
:100E8800C90048140800B5003F303205B3003508E2
:100E98004C3E840083130008C0393304B40035087D
:100EA8004C3E8400340880000800B300B4013108C7
:100EB80034020318080034083307B20084003408E9
:100EC8003007792783138000B40A5B2FAE002D0BFF
:100ED800732F2E084C3E84008313001708002E0839
:100EE8004C3E8400831300130800AD000B08AE00CD
:100EF8008B132D0883169B001C141A088312AF004D
:100F08002E088B002F080800B5270E30B2000330DA
:100F180047271830B200023047271830B200013096
:100F28004727A72F07308A000408840A820700345D
:100F380080344034013464008001840A04060319B3
:100F480000340406A02F83124D08CA004E08CB00B7
:100F58004F08CC000800BC308312DD000230DE00F0
:100F6800080022308312CD00CE00CF000800831283
:080F7800E010E0180800BD2F95
:02400E0010DFC1
:00000001FF
