:020000001028C6
:10000800FE00030E83120313A7000408A8000A08C1
:10001800A9007F08AA001D2B1128FF308316B600FF
:10002800B700B800B900BA00BB00BC00BD00BE00F4
:10003800BF00C000C100C200C300C400C500C600A4
:100048004430831384005D307E278312E0018301EE
:100058002D288B010730831681002E3085008601FC
:10006800831285018601EB3081000430920007304D
:100078009F0094278627A0308B008E270830831690
:10008800B201AE01AF01B301B30AB5002430831247
:10009800DF00213083125F06031D6228DF01580349
:1000A80003195E28A030D801D80A8316AE000F3095
:1000B800AF00FC28DD01DE01D801FC281F305F06F7
:1000C80003196E2820305F0603196E2822305F0658
:1000D800031DCB288E27601C952822305F06031944
:1000E80095281F305F06031D8028083083163506C3
:1000F8000319802808308B28203083125F06031DDF
:100108004D2802308316350603194D280230B301F5
:10011800B30AB5008312DF0148109A278316350801
:10012800FB28223048105F060319A82883163208D6
:10013800B000B1010310B00DB10D0310B00DB10D39
:100148000310B00DB10DAC2880308316B000B1019A
:100158001F3083125F06031DB3280130B428003016
:10016800B5008316300826244B21DF01601CC02807
:100178008316B301B30AC428562138273C218626A2
:1001880008308316B50014274818C828FA282330E1
:100198005F06031DDE288E27DF01023060148316F8
:1001A800B500831248109A270230ED268316B30152
:1001B800B30AFC2824305F06031DFC28DF018316E0
:1001C8003308031DE8285F228E278030B5012624D6
:1001D8004B21601CF3288316B301B30AF728562174
:1001E80038273C21862608308316B5000830ED26CE
:1001F8008312C71F0F29601C092902308316350690
:10020800031D0B290830B5000B299427672783168F
:100218003508ED262929471F17299427C82383164F
:100228003508ED2629298316330803192929B3012E
:1002380094272030B200013026272030B200023047
:1002480026272030B2000330262783162E082F04D5
:1002580003193A2901308312AD01AD0A492701304B
:100268008316AE020030031CAF03AF0286274D2869
:10027800831634088312C3000310C30C0310C30C85
:100288000310C30C43088316B20032080800831613
:10029800B400803A83120313031D54296014080024
:1002A80060100800831634088312B0000830B100CB
:1002B800BF34481C08004908A500441C72292508B9
:1002C8001C25003A8312031303196F29C330441005
:1002D800C414C40508004810C7170800C41CB32973
:1002E800601C82292508F000CC304D2583120313A9
:1002F8004408C3390438C400C4100800440CA000E2
:10030800200C0F39A1000830210203180800440C02
:10031800A000200C0F39031D95292508F000553041
:100328004D25831203132508F000440CA000200C6F
:100338000F39BF3E8400831300084D258312031331
:10034800440C572244082006C3392006C400440C34
:10035800A000200C0F39083A031D08008029441F0B
:10036800BD292508F00044304D258312031344139A
:100378000800450846040319CC290130C50200309D
:10038800031CC603C60245084604031944140800A2
:10039800471CD6292508F000BE304D2583120313CB
:1003A80047100800C71C4D2A4F2203180800A20155
:1003B800F4294F220318F829470CA000200C0F3904
:1003C800B63E84002508A7258313800083120313F3
:1003D800470C572247082006C3392006C700A20A3F
:1003E80003302202031CDD29470CA000200C0F3922
:1003F800093A031D08000830F000B630CE258316F0
:100408003E0603190A2A8312C717492A3608831297
:10041800A300831637088312A4002308DB000F30DB
:10042800DB050A30F600F7015B08F0000630F10141
:10043800F200F301BC267008023EF80071080318A8
:10044800013E003EF9006B247608DB000F30A30E56
:10045800A3052408DA008030DA05F030A40EA405DC
:100468007030A4052308A4045A080319472A24084D
:100478007F3CDC005B080A3CDB000A3A031D492A82
:10048800DB01DC0A492A2408DC00C710481047179A
:10049800080048100800470CA000200C0F39A100E4
:1004A800093021020800A000200C0F39A000A00A82
:1004B800A00DA00D080083124810D80A94278316AF
:1004C800AD01AA01AA0AA801A901A90A83125F0815
:1004D8000319782A831628080319782A8312DF015A
:1004E8008316A801A901A90A1F3083125F06031DFC
:1004F8008A2ADF0183162D080319842AAD03862A68
:100508000F30AD008316A901A90AFE2A20305F0624
:10051800031D982ADF010F3083162D020318962A2F
:10052800AD0A862AAD01862A22305F06031DA02A5D
:10053800DF01942786271A2B23305F06031DE52A3F
:1005480083162A0BE52A8312DF019A270230B0248A
:10055800003A0319E02A9A270230AD003330E82424
:100568008316AB019A2783162B08A03E840002301D
:100578007D258313800008308316AB0A2B02031CE9
:10058800B62A07308312AD00A030F025831627065F
:10059800031DE02A9A2783162D088312B900031039
:1005A800B90D0310B90D0310390DB0000830B100B2
:1005B800A03001279A27862A67278316A801A80A48
:1005C800FE2A243083125F068316031DFF2A2A0899
:1005D800031DFE2A8312DF018316AC012C08A03EFE
:1005E8008400FF30831380000830AC0A2C02031CFF
:1005F800F22ACE2A8316290803196A2AA030A901EB
:100608008312B50083162D0832268316AA002D08FA
:10061800862683162A08031D132B0130142B00305D
:100628008312AD000130492786276A2A9A27D80302
:1006380008000B1DBD2B0B11EB3081070330550251
:100648000318D50155084A3E840083130008AB00FF
:100658003F396A26D9002B1F332B5915342B5911D2
:1006680086015508013E84007527A600050834391F
:1006780026048500D50A59088600E0145D085E0442
:10068800031D4C2B5808031D502B83160516502BA1
:10069800FF30DD07031CDE038312AC015408031985
:1006A800572BD403BC2BDF01851E5E2B19302C146D
:1006B800D200642B5208031D632B2C10642BD20329
:1006C800051D6A2B1930AC14D300702B5308031D79
:1006D8006F2BAC10702BD30352080319772B1930EA
:1006E8005206031DBC2B530803197E2B19305306E1
:1006F800031DBC2B2C080319A82B56082C0603191C
:100708008B2BD001D101D7012C08D600A02B0030AB
:1007180051029630031950020318962BD00A031978
:10072800D10AA02B963050065104031DA02B570860
:10073800031DA02BD701D70A570BBC2B5608213E07
:10074800DF000230D700BA2B56080319B22B57081E
:10075800031DB22B56081E3EDF00B62B023057068B
:10076800031DBC2BD601D001D101D7012830D400FC
:100778005D212A08FF0029088A0028088400270E1E
:100788008300FE0E7E0E09000330BB00BA005A0833
:100798000319D32B2030B20003302627D72B0A3079
:1007A8005C020318D92BBB03BA03B80164305C029E
:1007B800031CE02B0130E12B0030B6000A305C024C
:1007C800031CE82B0130E92B00303607B9000A304A
:1007D800AD005C084E26B20039083B0226273808CF
:1007E800031DFD2BAD01AD0A39083B024927B801AD
:1007F800B80A0A30AD005C08A126DC00BA035C0820
:10080800031DDA2B3A08031908003A08BB000A301E
:100818005B02031C162C3A0B162C0A30AD005B0841
:10082800A126DB000A305B02031C1C2C01301D2CA6
:100838000030B7000A30AD005B084E26B20037081A
:100848003B02262F8312C000803A031D322C350844
:100858000319302CC001322C7830C0004008C20087
:100868008030BE003508031D422C78304206031D37
:100878003F2CC2014A2C0830C2074A2C4208031DEB
:10088800482C7830C2004A2C0830C2029A27420805
:10089800B0000830B10036303827BF01BF0AC101A7
:1008A8004108363E84008313000FBF010830C10A97
:1008B8004102031C542C3F08031D652C4208BE004E
:1008C800692C42084006031D362C3E080800FB012F
:1008D800F71F752CF609F709F60A0319F70AFB0141
:1008E800FB0AF91F7E2CF809F909F80A0319F90A15
:1008F8000130FB06FC01FD01760877040319A32CDF
:10090800FA01FA0AF71B8C2C0310F60DF70D852C4B
:100918000310FC0DFD0D77087902031D952C760850
:100928007802031C9F2C7608F8027708031CF90349
:10093800F9027C140310F70CF60CFA0B8C2C7B08CC
:100948000319AB2CFC09FD09FC0A0319FD0A7D08F3
:10095800F7007C08F6000800AE00B1003109AF00CE
:1009680031088316850406308312AD00AD0BBA2C0E
:100978000000831203132F0883168505A6308312FF
:10098800AD00AD0BC52C000083120313310883168C
:10099800850415308312AD00AD0BD02C00008312F6
:1009A8000313050831050319DB2C0130DC2C00305A
:1009B800B0009530AD00AD0BDF2CE22C8312031391
:1009C8003008031901340034AF002D08B30033098F
:1009D800B100B2012F08B000B201301C002D31085F
:1009E80083168505F72CF82C00001625173083127E
:1009F800AE00AE0BFD2C0C2D310883168505173083
:100A08008312AE00AE0B062D16250A2D0B2D000005
:100A18000830831203130310B00CB20A3202031811
:100A28000800F12C83120313330883168504080089
:100A3800F100F4007409F200740883168504063086
:100A4800F000F00B252D00007208831603138505AE
:100A5800A630F000F00B2E2D000074088316031347
:100A680085041530F000F00B372D000083120313B6
:100A7800050874050319422D0130432D0030F30099
:100A88009530F000F00B462D492D730803190134F9
:100A98000034F2007008F6007609F400F5017208D7
:100AA800F300F501731C622D73255A2D5B2D000090
:100AB80078251730F100F10B5F2D6B2D732517305A
:100AC800F100F10B652D7825692D6A2D000008309D
:100AD8000310F30CF50A750203180800562D740864
:100AE8008316031385050800760883160313850407
:100AF80008008312AE00B2003209AF00B001B101A4
:100B08002F0883168505882D892D8A2D83120313B6
:100B1800320883168504902D912D83120313031038
:100B2800B00C05083205031DB0171330AD00AD0B2E
:100B38009B2D9E2D083083120313B10A3102031C2A
:100B4800842D30080800F100F5007509F200F30162
:100B5800F4017208831603138505B22DB32DB42D45
:100B68007508831603138504B92DBA2D0310F30CE9
:100B78008312031305087505031DF3171330F000DE
:100B8800F00BC42DC72D0830F40A7402031CAD2DD8
:100B980073080800F100F501EB2D71088400831338
:100BA8000008F200F10AF40175087206F30001303A
:100BB800F3050310F50C0310F20C73080319E62D66
:100BC8008C30F5060830F40A7402031CD82DF003A3
:100BD800700FD12D75080800B000B2010C2E300836
:100BE80084000008AE00B00AB10132082E06AF003A
:100BF8000130AF050310B20C0310AE0C2F08031917
:100C0800072E8C30B2060830B10A3102031CF92DC8
:100C1800AD032D0FF32D320808006C2E6D2E6E2EAD
:100C28006F2E702E712E722E732E742E752E792EB5
:100C3800792E792E792E762E792E792E792E792E77
:100C4800792E792E792E792E792E772E792E792E66
:100C5800792E792E792E792E792E782E8312B70057
:100C6800B6000310B60D0310B60D0310360DB00014
:100C78000830B10035083827B80138083507B600FC
:100C880084008313000F00340830B80A38020318B0
:100C98000134412EAF000830B000B1012F08AE007A
:100CA80007300310AE0CFF3E0310031D562E310D06
:100CB8002E04B1000310AF0D2D083102031C662E5F
:100CC8002D08B102B00B522E31080800F0007A2E20
:100CD800DB341834B334BA347834EA34EB34983427
:100CE800FB34FA34E33421342034003470088400AF
:100CF800213004020318003406308A00113004073A
:100D0800820008008312B60094270A30B60A360219
:100D1800031C9C2E0A30AD003608A126B200033011
:100D280026270A30AD0036084E26B20002309F2E24
:100D38003608B20003302627862FAE00B0012D08F2
:100D48000319BA2EAF01AF0AAD1BAD2E0310AD0DBE
:100D5800A72E0310B00D2D082E02031CB72E2D0848
:100D6800AE0230140310AD0CAF0BAD2E30080800E6
:100D7800F401F501701CC62E7208F4070318F50A71
:100D88007308F5070310F20DF30D0310F10CF00CC6
:100D980070087104031DBE2E7508F1007408F00078
:100DA8000800AE000B08AF008B132E0883169B00BB
:100DB80083122D0883169A001C1555309D00AA3001
:100DC8009D009C141C119C18E72E83122F088B0081
:100DD80008008312AD00C3304414C414C40578302D
:100DE8004417C500C330C6014714C714C705C71345
:100DF80047132D08C90048140800B300B40131088E
:100E08003402031808009A2734083307B200840014
:100E180083130008AD0034083007D526B40A032F21
:100E28008312AD00C3304414C410C4054413C50173
:100E3800C6014710C710C705C71347132D08C900B7
:100E480048140800B5003F303205B30035084C3E61
:100E5800840083130008C0393304B40035084C3EBD
:100E68008400340880000800B300B401310834025B
:100E78000318080034083307B20084003408300728
:100E8800582783138000B40A3A2FAE002D0B522F37
:100E98002E084C3E84008313001708002E084C3E91
:100EA8008400831300130800AD000B08AE008B13F9
:100EB8002D0883169B001C141A088312AF002E08F5
:100EC8008B002F08080094270E30B2000330262725
:100ED8001830B200023026271830B2000130262719
:100EE800862F07308A000408840A82070034803479
:100EF8004034013464008001840A04060319003474
:100F080004067F2F83124D08CA004E08CB004F08F5
:100F1800CC000800BC308312DD000230DE0008007F
:100F280022308312CD00CE00CF0008008312E010DB
:060F3800E01808009C2FE8
:02400E0010DFC1
:104200002800FF001300E7006300150002005B00B8
:104210002800FF0029008900630015000200E70064
:104220002800FF00F800E700630015000200F1001D
:104230002800FF00BE00AC0064001500010068000B
:104240002800FF00EC0095006300150002003D000F
:104250002800FF0000009300630015000200CF005B
:104260002800FF001D00A800630015000200830065
:104270002800FF002A00A800630015000200560075
:104280002800FF00A500D4006300150002004800CC
:104290002800FF006500D300630015000200EC0059
:1042A0002800FF004100A700630015000200AD00D8
:1042B0002800FF00A200D1006400150001000000EA
:00000001FF
