:020000001028C6
:10000800FE00030EF2000408F3000A08F40083124D
:1000180003137F08F5002D281128F8017930840092
:100028007E30F1238313403084004F30F123E923DD
:10003800CF00EA23D000EB23D100EC23D200ED233C
:10004800D300EE23D400EF23D500F023D60083019C
:1000580085290B1D03290B1104308400DE22F100D1
:100068007108810703307B020318FB017B08013EFE
:100078008400DE22F1007108CD007B08403E840038
:1000880083130008F1007108F60076083F39F5215E
:10009800F100710883120313CC00761F55284C1504
:1000A8005928FB30F1007108CC050130F1007108C6
:1000B800FB074C088600050836394D04850078157D
:1000C800FF30D7070318D80AFF30D8075708580455
:1000D800031D7228F815831603130516F7018312FA
:1000E8004A0803197A280130CA020329CB01051DE1
:1000F800872877080138F1007108F7001930F100F6
:100108007108C80092284808031D90287708FE390E
:10011800F1007108F70092280130C802851C9E285A
:1001280077080238F1007108F7001930F1007108FA
:10013800C900A9284908031DA7287708FD39F10037
:100148007108F700A9280130C90248080319B02826
:1001580019304806031D032949080319B72819301F
:100168004906031D032977080319EB287908770640
:100178000319C628C601C701FA017708F1007108FA
:10018800F900DE28003047029630031946020318AA
:10019800D4280130C6070318C70A0030C707DE286D
:1001A800963046064704031DDE287A08031DDE281C
:1001B800FA01FA0A7A03031D03297908213EF1009E
:1001C8007108CB000230F1007108FA00FF287908A5
:1001D8000319F7287A08031DF72879081E3EF1004D
:1001E8007108CB00FB2802307A06031D0329F901A8
:1001F800C601C701FA012830F1007108CA00750864
:10020800FF0074088A0073088400720E8300FE0ED3
:100218007E0E090083120313B900C0303906031D8E
:100228001929B830AB002B08B9003908AB00AC016C
:100238002B08BB002C08BC00C030B6000030B7004B
:100248002A08031D3629B8303B063C04031D2F2914
:10025800BB01BC0145290830BB070318BC0A0030A4
:10026800BC0745293B083C04031D3F29B830BB00A7
:100278000030BC0045290830BB020030031CBC0319
:10028800BC023B08AB0002300310AB0DFF3E031D60
:10029800482903102B0DAC002C08A4000830AD0031
:1002A8002D08A5002E305F2383120313B801B80A66
:1002B800BA0108303A02031870293A082E3E840021
:1002C8008313000A031DB8010130AB002B08BA07DD
:1002D80008303A02031C61293808031D78293C08B4
:1002E800B7003B08B60083293908AB00AC013C08CD
:1002F8002C06031D81293B082B06031D24293608DB
:1003080008008B010730831603138100063085002F
:100318008601831203138501860104308400DE22DE
:1003280081000430920007309F00A0308B00F92331
:10033800D523203083120313BD003D08A0000130EF
:10034800BF23203083120313BD003D08A0000230F4
:10035800BF23203083120313BD003D08A0000330E3
:10036800BF23912383120313AA01C0300E218312E5
:100378000313BD003D08BE00C0303E06031DC6295C
:10038800F814C729F810F81CCF2983120313A00109
:10039800A00A02307A239123F814832233304B22A7
:1003A80083120313BF0108303F020318ED29B4225A
:1003B80083120313BD003F084F3E84003D0883139A
:1003C80080000130BD003D08BF0708303F02031C14
:1003D800DB29A4010830BD003D08A5004F304323A8
:1003E800F429F0003F2ADB30080018300800B33049
:1003F8000800BA30080078300800EA300800EB300E
:10040800080098300800FB300800FA300800F9307E
:1004180008006B300800C33008003B300800E330A8
:100428000800E1300800F830080069300800413061
:1004380008001A30080043300800293008002B3023
:100448000800F1300800213008006A3008006330E5
:1004580008005B3008000B30080071300800B1302C
:100468000800F03008002030080002300800003092
:1004780008000030080070088400233004020318C4
:100488003D2A03308A0000300407820008008312E6
:100498000313A100A201A3012108A0002008A200C3
:1004A800A3010830230203180800221C6B2A8316B4
:1004B800031385115F2A602A00008316031385152C
:1004C800173083120313A000A00B682A7A2A831618
:1004D80003138511173083120313A000A00B722A8F
:1004E800831603138515782A792A000003108312CE
:1004F8000313A20C0130A0002008A307552A781086
:10050800831603138515063083120313A000A00B6E
:100518008B2A0000831603138511A6308312031358
:10052800A000A00B952A000083160313851515302B
:1005380083120313A000A00B9F2A000078108312D7
:10054800031385197814953083120313A000A00BA8
:10055800AB2AAE2A781CB22A03100800031408003C
:1005680083120313A101A201083022020318DC2A16
:10057800831603138511C02AC12AC22A83160313BE
:100588008515C62AC72A031083120313A10C8519DF
:10059800A1171330A000A00BCF2AD22A0130831252
:1005A8000313A0002008A20708302202031CBC2A5B
:1005B8002108080002308A000408840A82070034EF
:0805C800803440340134EB34AF
:10060000F729F929FB29FD29FF29012A032A052AAF
:10061000072A092A0B2A0D2A0F2A112A132A152A1A
:10062000172A192A1B2A1D2A1F2A212A232A252A8A
:10063000272A292A2B2A2D2A2F2A312A332A352AFA
:10064000372A392A3B2A83120313A2000B08A10080
:100650002108A3008B132208831603139B00831227
:1006600003132008831603139A001C1555309D00B0
:10067000AA309D009C141C119C183C2B8312031360
:1006800023088B00080083120313A800A901250882
:1006900029020318080029082807A6002608840054
:1006A00083130008A7002708A00029082407232394
:1006B000013083120313A6002608A907472B8312D3
:1006C0000313A800A9012508290203180800290816
:1006D0002407A82383120313A60029082807A700CC
:1006E000270884002608831380000130A60026080E
:1006F000A907632B83120313A2002003031D872B7A
:100700002208FF3E433E8400831300170800BF30D9
:10071000A1002208FF3E433E840021088313800588
:10072000080083120313A1010330210203180800FB
:100730002108433E840083130008A0002108403EA6
:100740008400200880000130A0002008A107942B1D
:1007500083120313A1000B08A0002008A2008B1332
:100760002108831603139B001C141A088312031319
:10077000A0002008A30022088B0023080800831291
:100780000313A3003F302005A1002308FF3E433E92
:10079000840083130008C0392104A2002308FF3E0F
:1007A000433E840022088000080083120313A10145
:1007B00003302102031808002230A0002108433E24
:1007C00084002008831380000130A0002008A107C6
:1007D000D82BFF34FF34FF34FF34FF34FF34FF34B1
:1007E000FF3464008001840A0406031900340406FF
:1007F000F22BBC3083120313D7000230D80008005C
:02400E0030FF81
:00000001FF
