:020000001028C6
:10000800FE00030E83120313A7000408A8000A08C1
:10001800A9007F08AA00E62A1128FF308316B60037
:10002800B700B800B900BA00BB00BC00BD00BE00F4
:10003800BF00C000C100C200C300C400C500C600A4
:100048004430831384005D30DA278312E001830192
:100058002D29481C08004908A500441C42282508E9
:100068007D25003A8312031303193F28C330441037
:10007800C414C40508004810C7170800C41C832806
:10008800601C52282508F000CC30AE2583120313DB
:100098004408C3390438C400C4100800440CA00044
:1000A800200C0F39A1000830210203180800440C65
:1000B800A000200C0F39031D65282508F0005530D5
:1000C800AE25831203132508F000440CA000200C71
:1000D8000F39BF3E840083130008AE258312031333
:1000E800440C1D2144082006C3392006C400440CD2
:1000F800A000200C0F39083A031D08005028441F9F
:100108008D282508F0004430AE25831203134413CC
:1001180008004508460403199C280130C502003030
:10012800031CC603C6024508460403194414080004
:10013800471CA6282508F000BE30AE2583120313FD
:1001480047100800C71C0800252103180800A20151
:10015800C42825210318C828470CA000200C0F39F3
:10016800B63E8400250830268313800083120313CB
:10017800470C1D2147082006C3392006C700A20ADC
:1001880003302202031CAD28470CA000200C0F39B5
:10019800093A031D08000830F000B63057268316C8
:1001A8003E060319DA288312C7171929360883125D
:1001B800A300831637088312A4002308DB000F303E
:1001C800DB050A30F600F7015B08F0000630F101A4
:1001D800F200F3012A277008023EF800710803189C
:1001E800013E003EF9008F247608DB000F30A30E95
:1001F800A3052408DA008030DA05F030A40EA4053F
:100208007030A4052308A4045A08031917292408E0
:100218007F3CDC005B080A3CDB000A3A031D192915
:10022800DB01DC0A19292408DC00C710481047172D
:100238000800A000200C0F39A000A00AA00DA00DF6
:100248000800470CA000200C0F39A100093021023A
:1002580008008B010730831681002E308500860147
:10026800831285018601EB3081000430920007304B
:100278009F00F027E227A0308B00EA27083083167A
:10028800B301AE01AF01B201B20AB5002430831246
:10029800DF00213083125F06031D6229DF01580346
:1002A80003195E29A030D801D80A8316AE000F3092
:1002B800AF00F229DD01DE01D801F2291F305F0607
:1002C80003196E2920305F0603196E2922305F0654
:1002D800031DB929EA27601C91291F305F06031DF9
:1002E8007C2908308316350603197C2908308729AC
:1002F800203083125F06031D4D2902308316350610
:1003080003194D290230B201B20AB5008312DF0188
:100318004810F62783163508F129223048105F0661
:100328000319A42983163308B000B1010310B00DD6
:10033800B10D0310B00DB10D0310B00DB10DA8290A
:1003480080308316B000B1011F3083125F06031D91
:10035800AF290130B0290030B500831630080524D4
:100368008316B4008312DF01D72924305F06031DEA
:10037800F229DF0183163208031DC3292822EA2740
:100388008030B50105248316B400803A8312031324
:10039800031DD0296014D1296010601CD729831649
:1003A800B201B20AEE29831634088312B00008306D
:1003B800B100BF309427831634088312C30003109A
:1003C800C30C0310C30C0310C30C43088316B300FB
:1003D8003308082608308316B5005B278312C71F29
:1003E800FB29F027C327831635085B27152A471FE3
:1003F800032AF0279123831635085B27152A8316CD
:1004080032080319152AB201F0272030B50001304F
:1004180082272030B500023082272030B500033013
:10042800822783162E082F040319262A01308312E7
:10043800AD01AD0AA52701308316AE020030031CBA
:10044800AF03AF02E2274D2983124810D80AF027DC
:100458008316AD01AA01AA0AA801A901A90A831253
:100468005F080319412A831628080319412A8312B1
:10047800DF018316A801A901A90A1F3083125F06AC
:10048800031D532ADF0183162D0803194D2AAD03D6
:100498004F2A0F30AD008316A901A90AC72A2030B8
:1004A8005F06031D612ADF010F3083162D02031832
:1004B8005F2AAD0A4F2AAD014F2A22305F06031D7D
:1004C800692ADF01F027E227E32A23305F06031DAC
:1004D800AE2A83162A0BAE2A8312DF01F6270230D2
:1004E8001125003A0319A92AF6270230AD00333046
:1004F80049258316AB01F62783162B08A03E8400F6
:100508000230DE258313800008308316AB0A2B02E5
:10051800031C7F2A07308312AD00A030792683168A
:100528002706031DA92AF62783162D088312BA0069
:100538000310BA0D0310BA0D03103A0DB0000830BD
:10054800B100A0306F27F6274F2AC3278316A801CA
:10055800A80AC72A243083125F068316031DC82AF7
:100568002A08031DC72A8312DF018316AC012C0851
:10057800A03E8400FF30831380000830AC0A2C02B0
:10058800031CBB2A972A831629080319332AA0308B
:10059800A9018312B50083162D08D7268316AA0051
:1005A8002D08082683162A08031DDC2A0130DD2AB7
:1005B80000308312AD000130A527E227332AF62741
:1005C800D80308000B1D862B0B11EB308107033075
:1005D80055020318D50155084A3E840083130008C4
:1005E800AB003F39F326D9002B1FFC2A5915FD2AE9
:1005F800591186015508013E8400D127A600050837
:10060800343926048500D50A59088600E0145D08A7
:100618005E04031D152B5808031D192B8316051698
:10062800192BFF30DD07031CDE038312AC015408CD
:100638000319202BD403852BDF01851E272B1930A6
:100648002C14D2002D2B5208031D2C2B2C102D2BD3
:10065800D203051D332B1930AC14D300392B5308A2
:10066800031D382BAC10392BD30352080319402B28
:1006780019305206031D852B53080319472B1930CF
:100688005306031D852B2C080319712B56082C06BD
:100698000319542BD001D101D7012C08D600692B9E
:1006A8000030510296300319500203185F2BD00A0C
:1006B8000319D10A692B963050065104031D692B82
:1006C8005708031D692BD701D70A570B852B5608E6
:1006D800213EDF000230D700832B560803197B2BFD
:1006E8005708031D7B2B56081E3EDF007F2B023068
:1006F8005706031D852BD601D001D101D70128301B
:10070800D4002D202A08FF0029088A002808840020
:10071800270E8300FE0E7E0E09000330BD00BE00CA
:100728005A0803199D2B2030B50003308227BD03DA
:10073800BE03BB0164305C02031CA42B0130A52B53
:100748000030B9000A305C02031CAC2B0130AD2B21
:1007580000303907BC000A30AD005C08BB26B50084
:100768003C083D0282273B08031DC12BAD01AD0AA1
:100778003C083D02A527BB01BB0A0A30AD005C0856
:100788000F27DC00BE035C08031D9E2B3E080319DF
:10079800012C3E08BD0064305B020A30031CD92BD3
:1007A800AD005B080F27DB000A305B02031CE32B5C
:1007B8003E0BE32B0A30AD005B080F27DB000A3045
:1007C8005B02031CE92B0130EA2B0030BA000A3027
:1007D800AD005B08BB26B5003A083D0282270A3007
:1007E800AD005B080F27DB00BE035B080319012C73
:1007F800E32BB5013E088227BE033E080319080013
:10080800FD2B8312C000803A031D112C35080319F3
:100818000F2CC001112C7830C0004008C200803075
:10082800BE003508031D212C78304206031D1E2CFE
:10083800C201292C0830C207292C4208031D272C85
:100848007830C200292C0830C202F6274208B000CE
:100858000830B10036309427BF01BF0AC1014108F2
:10086800363E84008313000FBF010830C10A4102DD
:10087800031C332C3F08031D442C4208BE00482C9F
:1008880042084006031D152C3E080800B201AE1FA1
:10089800542CAD09AE09AD0A0319AE0AB201B20A69
:1008A800B01F5D2CAF09B009AF0A0319B00A0130B7
:1008B800B206B301B4012D082E040319822CB1012C
:1008C800B10AAE1B6B2C0310AD0DAE0D642C0310DA
:1008D800B30DB40D2E083002031D742C2D082F0201
:1008E800031C7E2C2D08AF022E08031CB003B00297
:1008F80033140310AE0CAD0CB10B6B2C320803197A
:100908008A2CB309B409B30A0319B40A3408AE002F
:100918003308AD000800FB01F71F992CF609F70909
:10092800F60A0319F70AFB01FB0AF91FA22CF809BA
:10093800F909F80A0319F90A0130FB06FC01FD015F
:10094800760877040319C72CFA01FA0AF71BB02CAA
:100958000310F60DF70DA92C0310FC0DFD0D7708FB
:100968007902031DB92C76087802031CC32C76087B
:10097800F8027708031CF903F9027C140310F70C3A
:10098800F60CFA0BB02C7B080319CF2CFC09FD09D7
:10099800FC0A0319FD0A7D08F7007C08F600080028
:1009A800B201B01FDE2CAF09B009AF0A0319B00AB3
:1009B800B201B20AAE1FE52CAD09AE09AD0A0319A2
:1009C800AE0A2D082E040319042DB101B10AAE1B7D
:1009D800F12C0310AD0DAE0DEA2C2E083002031DCC
:1009E800F72C2D082F02031C002D2D08AF022E080E
:1009F800031CB003B0020310AE0CAD0CB10BF12C0C
:100A0800320803190C2DAF09B009AF0A0319B00A4F
:100A18003008AE002F08AD000800AE00B100310963
:100A2800AF0031088316850406308312AD00AD0B84
:100A38001B2D0000831203132F0883168505A6308B
:100A48008312AD00AD0B262D00008312031331086D
:100A58008316850415308312AD00AD0B312D0000CF
:100A6800831203130508310503193C2D01303D2D70
:100A78000030B0009530AD00AD0B402D432D8312F2
:100A880003133008031901340034AF002D08B300F4
:100A98003309B100B2012F08B000B201301C612D3A
:100AA800310883168505582D592D000077251730F4
:100AB8008312AE00AE0B5E2D6D2D310883168505B1
:100AC80017308312AE00AE0B672D77256B2D6C2D7A
:100AD80000000830831203130310B00CB20A32026C
:100AE80003180800522D8312031333088316850454
:100AF8000800F100F4007409F200740883168504F4
:100B08000630F000F00B862D0000720883160313E0
:100B18008505A630F000F00B8F2D000074088316B1
:100B2800031385041530F000F00B982D0000831294
:100B38000313050874050319A32D0130A42D0030F3
:100B4800F3009530F000F00BA72DAA2D73080319B8
:100B580001340034F2007008F6007609F400F5015B
:100B68007208F300F501731CC32DD925BB2DBC2DCC
:100B78000000D4251730F100F10BC02DCC2DD9255C
:100B88001730F100F10BC62DD425CA2DCB2D00004E
:100B980008300310F30CF50A750203180800B72D86
:100BA8007608831603138504080074088316031354
:100BB800850508008312AE00B2003209AF00B0010B
:100BC800B1012F0883168505E92DEA2DEB2D831237
:100BD8000313320883168504F12DF22D83120313B3
:100BE8000310B00C05083205031DB0171330AD0013
:100BF800AD0BFC2DFF2D083083120313B10A31020F
:100C0800031CE52D300808008312B900F0270930CD
:100C180039023908031C2B2EAF00B001AF0A0319A3
:100C2800B00A0A30AD00AE014A242D08B5000330E1
:100C380082273908AF00B001AF0A0319B00A0A3099
:100C4800AD00AE01D4242D08B50002302E2E013E91
:100C5800B50003308227E22FF100F5007509F20094
:100C6800F301F40172088316031385053B2E3C2E0D
:100C78003D2E7508831603138504422E432E031058
:100C8800F30C8312031305087505031DF3171330BE
:100C9800F000F00B4D2E502E0830F40A7402031C9D
:100CA800362E73080800F100F501742E71088400CF
:100CB80083130008F200F10AF40175087206F300C4
:100CC8000130F3050310F50C0310F20C7308031937
:100CD8006F2E8C30F5060830F40A7402031C612E5E
:100CE800F003700F5A2E75080800B000B201952E57
:100CF800300884000008AE00B00AB10132082E06A0
:100D0800AF000130AF050310B20C0310AE0C2F0872
:100D18000319902E8C30B2060830B10A3102031C38
:100D2800822EAD032D0F7C2E32080800F52EF62EEC
:100D3800F72EF82EF92EFA2EFB2EFC2EFD2EFE2E67
:100D4800022F022F022F022FFF2E022F022F022F17
:100D5800022F022F022F022F022F022F002F022F05
:100D6800022F022F022F022F022F022F012FAF0076
:100D78000830B000B1012F08AE0007300310AE0CE8
:100D8800FF3E0310031DC32E310D2E04B1000310C6
:100D9800AF0D2D083102031CD32E2D08B102B00B64
:100DA800BF2E310808008312B700B6000310B60D35
:100DB8000310B60D0310360DB0000830B100350829
:100DC8009427B80138083507B60084008313000F4C
:100DD80000340830B80A380203180134E62EF0004F
:100DE800032FDB341834B334BA347834EA34EB34B0
:100DF8009834FB34FA34E334213420340034700856
:100E08008400213004020318003406308A009A3026
:100E1800040782000800AE00B0012D080319282F2E
:100E2800AF01AF0AAD1B1B2F0310AD0D152F03101B
:100E3800B00D2D082E02031C252F2D08AE023014EC
:100E48000310AD0CAF0B1B2F30080800F401F5019F
:100E5800701C342F7208F4070318F50A7308F50795
:100E68000310F20DF30D0310F10CF00C700871046F
:100E7800031D2C2F7508F1007408F0000800AE005F
:100E88000B08AF008B132E0883169B0083122D08C6
:100E980083169A001C1555309D00AA309D009C149D
:100EA8001C119C18552F83122F088B0008008312E1
:100EB800AD00C3304414C414C405DC304417C50065
:100EC800C330C6014714C714C705C71347132D08F5
:100ED800C90048140800B300B401310834020318EB
:100EE8000800F62734083307B2008400831300088B
:100EF800AD00340830074327B40A712FB8003F30DB
:100F08003505B60038084C3E840083130008C03904
:100F18003604B70038084C3E8400370880000800C3
:100F2800B300B40131083402031808003408330749
:100F3800B200840034083007B42783138000B40A51
:100F4800962FAE002D0BAE2F2E084C3E8400831337
:100F5800001708002E084C3E840083130013080075
:100F6800AD000B08AE008B132D0883169B001C14D4
:100F78001A088312AF002E088B002F080800F027EC
:100F88000E30B500033082271830B50002308227B2
:100F98001830B50001308227E22F07308A00040894
:100FA800840A8207003480344034013464008001AC
:100FB800840A0406031900340406DB2F83124D0843
:100FC800CA004E08CB004F08CC000800BC30831282
:100FD800DD000230DE00080022308312CD00CE0092
:0E0FE800CF0008008312E010E0180800F82F78
:02400E0010DFC1
:104200002800FF00A200D10064001500010000009A
:104210002800FF00BE00AC0064001500010068002B
:104220002800FF00F800E700630015000200F1001D
:104230002800FF00EC0095006300150002003D001F
:104240002800FF0000009300630015000200CF006B
:104250002800FF001D00A800630015000200830075
:104260002800FF0029008900630015000200E70014
:104270002800FF002A00A800630015000200560075
:104280002800FF00A500D4006300150002004800CC
:104290002800FF006500D300630015000200EC0059
:1042A0002800FF001300E7006300150002005B0018
:1042B0002800FF004100A700630015000200AD00C8
:00000001FF
