:020000001028C6
:10000800FE00030E83120313A5000408A6000A08C5
:10001800A7007F08A800B62A1128FF308316BC0065
:10002800BD00BE00BF00C000C100C200C300C400C4
:10003800C500C600C700C800C900CA00CB00CC0074
:10004800CD3083138400D530BD2748308400593023
:10005800BD278312D90183012129CB1F0800481C21
:1000680040289D25031C3D28C3304810C814C805E6
:100078000800CB134B170800C81C7D28D918462840
:10008800481F5028CC30C725831203134808C339AA
:100098000438C800C8100800480CA000200C0F390C
:1000A800A1000830210203180800480CA000200C09
:1000B8000F39031D61285530C72583120313480CD7
:1000C800A000200C0F39C53E840083130008C72503
:1000D80083120313480C192148082006C339200647
:1000E800C800480CA000200C0F39083A031D08006E
:1000F8004E28481F85284430C72583120313481308
:10010800080049084A04031994280130C90200303C
:10011800031CCA03CA0249084A0403194814080000
:100128004B1C9C28BE30C725831203134B100800B4
:10013800CB1C0800112103180800A201B9281121BD
:100148000318BD284B0CA000200C0F39BC3E8400BE
:100158009C2683138000831203134B0C19214B0830
:100168002006C3392006CB00A20A03302202031C52
:10017800A3284B0CA000200C0F39093A031D0800D6
:100188000830F000BC303826831644060319CF28FF
:1001980083124B170E293C088312A30083163D08CF
:1001A8008312A4002308D7000F30D7050A30F600C1
:1001B800F7015708F0000630F101F200F301F226CA
:1001C8007008023EF80071080318013E003EF9006D
:1001D8001E247608D7000F30A30EA3052408D600E6
:1001E8008030D605F030A40EA4057030A40523088D
:1001F800A404560803190C2924087F3CD800570882
:100208000A3CD7000A3A031D0E29D701D80A0E293D
:100218002408D800CB10CB1308004B0CA000200CEE
:100228000F39A100093021020800A000200C0F3965
:10023800A000A00AA00DA00D08008B0107308316AE
:100248008100063085008601831285018601EB3026
:1002580081000430920007309F00A0308B00C52732
:10026800A6272030B300013036272030B3000230F3
:1002780036272030B300033036274827CB271525EB
:10028800CB27CC307225CB27443072258030B30180
:100298006324C700803A83120313031D5529D91418
:1002A8005629D910C601D9185C29F8215A27ED21F9
:1002B800C401C5016B2721305206031D7529D201DF
:1002C8005303031973290130D301D30AAB01AB0AD5
:1002D8007A271030C4002730C5004827D629D30113
:1002E800D629D9187B291F305206031983292030B3
:1002F80052060319832922305206031DA829C5274F
:1003080022308312CB135206031997294608C200DC
:10031800C3010310C20DC30D0310C20DC30D03109A
:10032800C20DC30D9A298030C200C3011F30520686
:10033800031DA0290130A1290030B300420863241D
:10034800C700D201CB27CC2924305206031DD62959
:10035800D201FD21C52780308312B3016324C70071
:10036800803A83120313031DBB29D914BC29D91061
:10037800D91CCC292030B300013036272030B300F7
:10038800023036272030B300033036274827D629D5
:10039800F8215A27ED21460844255030C40046303C
:1003A800C5006B274B1FDA299827DE29CB1BDE29CE
:1003B800A627652344084504031DE4294827EA299C
:1003C8000130C4020030031CC503C502CB1F5E29DF
:1003D8005F294708C1000310C10C0310C10C0310AA
:1003E800C10C4108C60008004708AE000830AF003D
:1003F800C534CB13D30AA627A0308316BB01BA0194
:10040800BA0A8312B300BA30B4000030F0250030C5
:1004180044251F305206031D202AD20183163B08AB
:100428000319182ABB031A2A0F30BB00AE22F02585
:1004380083163B084425912A20305206031D332A8F
:10044800D2010F3083163B0203182C2ABB0A2D2A2F
:10045800BB01AE22F02583163B084425912A2230A1
:100468005206031D3B2AD201A62748279E2A23307D
:100478005206031D6E2A83163A0B6E2A8312D20186
:10048800CB271525031C912ACB2733307225CB2780
:100498008316B801CB2783163808B03E84007B2624
:1004A8008313800008308316B80A3802031C4E2ACA
:1004B80007308312AB00B0305A2683163706031D67
:1004C8006C2ACB27A022B0302327CB27B0308B2A29
:1004D8009827912A2430831252068316031D922AE4
:1004E8003A08031D912A8312D2018316B9013908EB
:1004F800A83E8400FF3080000830B90A3902031C86
:100508007B2ACB27A022A8302327CB27A830B300EB
:10051800BA30B40083163B08F02583163A08031D49
:10052800972A0130982A00308312AB0001307A27CD
:1005380048270D2AD303080083163B088312B90005
:100548000310B90D0310B90D0310390DAE000830B2
:10055800AF000800A0308312B300BA30B40083168D
:100568003B0808000B1D542B0B11EB30810703309F
:1005780051020318D1015108013E8400B427D50067
:100588005108CD3E840083130008A9003F39E424B4
:10059800D400291FD12A5415D22A5411D10A54083B
:1005A80086000508363955048500FF30591583162D
:1005B800D507031CD603550856048312031DE92AE0
:1005C80053088316031905168312AA014E08031946
:1005D800EF2ACE03532BD201051DF62A19302A140F
:1005E800CC00FC2A4C08031DFB2A2A10FC2ACC0349
:1005F800851C022B1930AA14CD00082B4D08031DA9
:10060800072BAA10082BCD034C0803190F2B193000
:100618004C06031D532B4D080319162B19304D0694
:10062800031D532B2A080319412B4F082A060319C7
:10063800212B5F232A08CF00382B00308316540261
:1006480096300319530203182D2BD30A0319D40A21
:10065800382B9630530654048312031D392B500847
:10066800031D382BD001D00A8312500B532B4F088F
:10067800213ED2000230D000512B4F0803194B2BDA
:100688005008031D4B2B4F081E3ED2004F2B023043
:100698005006031D532BCF015F232830CE00312095
:1006A8002808FF0027088A0026088400250E8300F2
:1006B800FE0E7E0E09008316D301D4018312D001E9
:1006C80008000330BB00BC0056080319712B20300A
:1006D800B30003303627BB03BC03B90164305802AA
:1006E800031C782B0130792B0030B7000A305802F0
:1006F800031C802B0130812B00303707BA000A30E9
:10070800AB005808BB26B3003A083B023627390825
:10071800031D952BAB01AB0A3A083B027A27B901B6
:10072800B90A0A30AB005808D726D800BC035808C5
:10073800031D722B3C080319D52B3C08BB00643001
:1007480057020A30031CAD2BAB005708D726D70039
:100758000A305702031CB72B3C0BB72B0A30AB00EF
:100768005708D726D7000A305702031CBD2B013083
:10077800BE2B0030B8000A30AB005708BB26B300C8
:1007880038083B0236270A30AB005708D726D7006F
:10079800BC0357080319D52BB72BB3013C083627E0
:1007A800BC033C0803190800D12BB001AC1FE32B94
:1007B800AB09AC09AB0A0319AC0AB001B00AAE1F09
:1007C800EC2BAD09AE09AD0A0319AE0A0130B0062B
:1007D800B101B2012B082C040319112CAF01AF0A87
:1007E800AC1BFA2B0310AB0DAC0DF32B0310B10DA2
:1007F800B20D2C082E02031D032C2B082D02031CFE
:100808000D2C2B08AD022C08031CAE03AE023114CC
:100818000310AC0CAB0CAF0BFA2B30080319192CD6
:10082800B109B209B10A0319B20A3208AC00310899
:10083800AB000800FB01F71F282CF609F709F60A98
:100848000319F70AFB01FB0AF91F312CF809F9090A
:10085800F80A0319F90A0130FB06FC01FD017608C4
:1008680077040319562CFA01FA0AF71B3F2C0310D8
:10087800F60DF70D382C0310FC0DFD0D77087902E5
:10088800031D482C76087802031C522C7608F802BF
:100898007708031CF903F9027C140310F70CF60C13
:1008A800FA0B3F2C7B0803195E2CFC09FD09FC0A96
:1008B8000319FD0A7D08F7007C08F6000800BE0051
:1008C800803A031D6E2C330803196C2CBE016E2C64
:1008D8007830BE003E08C0008030BC003308031DDD
:1008E8007E2C78304006031D7B2CC001862C0830F6
:1008F800C007862C4008031D842C7830C000862C45
:100908000830C002CB274008AE000830AF003430B2
:100918005A27BD01BD0ABF013F08343E8400831336
:10092800000FBD010830BF0A3F02031C902C3D0890
:10093800031DA12C4008BC00A52C40083E06031D41
:10094800722C3C080800B001AE1FB12CAD09AE09ED
:10095800AD0A0319AE0AB001B00AAC1FB82CAB0936
:10096800AC09AB0A0319AC0A2B082C040319D72CC1
:10097800AF01AF0AAC1BC42C0310AB0DAC0DBD2CE2
:100988002C082E02031DCA2C2B082D02031CD32C65
:100998002B08AD022C08031CAE03AE020310AC0CEE
:1009A800AB0CAF0BC42C30080319DF2CAD09AE0912
:1009B800AD0A0319AE0A2E08AC002D08AB000800DA
:1009C800F000092DDB341834B334BA347834EA34FF
:1009D800EB349834FB34FA34F9346B34C3343B3495
:1009E800E334E134F834693441341A344334293473
:1009F8002B34F13421346A3463345B340B3471346E
:100A0800B134F034203402340034700884002330C8
:100A180004020318003406308A00153004078200E7
:100A2800080059108316851506308312AB00AB0BEE
:100A38001B2D0000831603138511A6308312AB000B
:100A4800AB0B242D00008316031385151530831274
:100A5800AB00AB0B2D2D0000831203135910851921
:100A68005914953083120313AB00AB0B392D3C2D71
:100A780083120313591C422D0310080003140800A5
:100A88008312B700A627093037023708031C652DE3
:100A9800AD00AE01AD0A0319AE0A0A30AB00AC01D5
:100AA800D9232B08B300033036273708AD00AE0131
:100AB800AD0A0319AE0A0A30AB00AC01A7242B0813
:100AC8006A2D013EB300033036272230B3000230CE
:100AD80036272230B30001303627482FAC00AE014C
:100AE800AD00AE012D1C862D831685117B2D7C2D26
:100AF800000083160313851517308312AB00AB0B68
:100B0800832D932D8316851117308312AB00AB0B01
:100B18008B2D831603138515912D922D0000083017
:100B2800831203130310AD0CAE0A2E02031808003B
:100B3800762D5910831685150630F000F00BA22D7E
:100B48000000831603138511A630F000F00BAA2DC0
:100B580000008316031385151530F000F00BB22D35
:100B68000000831203135910851959149530F000A9
:100B7800F00BBC2DBF2D83120313591CC52D031078
:100B8800080003140800F100F301F200F301721CDD
:100B9800DB2D831603138511D12DD22D000083166A
:100BA800031385151730F000F00BD82DE82D8316A8
:100BB800031385111730F000F00BE02D8316031393
:100BC8008515E62DE72D000008300310F20CF30A16
:100BD800730203180800CB2D8312B600B701B70AB9
:100BE800B5000310B50D0310B50D0310350DAE009B
:100BF8000830AF0033085A27B80138083307B50062
:100C080084008313000A03190B2EB701102E083035
:100C1800B80A3802031C012E340884003708800003
:100C28000800E62CE72CE82CE92CEA2CEB2CEC2C21
:100C3800ED2CEE2CEF2CF02CF12CF22CF32CF42CC8
:100C4800F52CF62CF72CF82CF92CFA2CFB2CFC2C78
:100C5800FD2CFE2CFF2C002D012D022D032D042D23
:100C6800052D062D072D082DF100F501552E7108CB
:100C7800840083130008F200F10AF4017508720673
:100C8800F3000130F3050310F50C0310F20C7308A0
:100C98000319502E8C30F5060830F40A7402031C30
:100CA800422EF003700F3B2E75080800AE00B0010D
:100CB800762E2E0884000008AC00AE0AAF0130087A
:100CC8002C06AD000130AD050310B00C0310AC0CC0
:100CD8002D080319712E8C30B0060830AF0A2F0288
:100CE800031C632EAB032B0F5D2E30080800831204
:100CF800AC01AD0183168511812E822E832E8316B9
:100D080003138515872E882E831203130310AC0C4A
:100D18008519AC171330AB00AB0B902E932E08300F
:100D280083120313AD0A2D02031C7E2E2C08080023
:100D3800F101F201831603138511A22EA32EA42E0E
:100D4800831603138515A82EA92E0310F10C831200
:100D580003138519F1171330F000F00BB12EB42EE0
:100D68000830F20A7202031C9E2E71080800AD00BA
:100D78000830AE00AF012D08AC0007300310AC0CF2
:100D8800FF3E0310031DC32E2F0D2C04AF000310CC
:100D9800AD0D2B082F02031CD32E2B08AF02AE0B70
:100DA800BF2E2F080800AC00AE012B080319F02E47
:100DB800AD01AD0AAB1BE32E0310AB0DDD2E031006
:100DC800AE0D2B082C02031CED2E2B08AC022E14A2
:100DD8000310AB0CAD0BE32E2E080800F401F5014F
:100DE800701CFC2E7208F4070318F50A7308F5073F
:100DF8000310F20DF30D0310F10CF00C70087104E0
:100E0800031DF42E7508F1007408F0000800AC000A
:100E18000B08AD008B132C0883169B0083122B083C
:100E280083169A001C1555309D00AA309D009C140D
:100E38001C119C181D2F83122D088B000800B1006F
:100E4800B2012F08320203180800CB2732083107F5
:100E5800B000840083130008AB0032082E070B276C
:100E6800B20A252FB6003F303305B4003608CF3E0E
:100E7800840083130008C0393404B5003608CF3E17
:100E88008400350880000800AC012C08D03E84009E
:100E980083130008AB002C08CD3E84002B0880008B
:100EA8000330AC0A2C0203180800492FB100B20124
:100EB8002F0832020318080032083107B0008400F6
:100EC80032082E07892783138000B20A5C2FC330AB
:100ED8004814C814C80578304817C900C330CA0177
:100EE8004B14CB14CB054B13CB170800AC002B0BC2
:100EF800832F2C08CF3E84008313001708002C088A
:100F0800CF3E8400831300130800AB000B08AC002D
:100F18008B132B0883169B001C141A088312AD0030
:100F28002C088B002D080800A6270E30B3000330CC
:100F380036271830B300023036271830B300013096
:100F48003627482F8312AB012B08D03E840022306D
:100F5800831380000330AB0A2B0203180800A82F64
:100F680007308A000408840A820700348034403439
:100F7800013464008001840A04060319003404065D
:100F8800BE2FBC308316D5000230D600080083126D
:080F9800591159190800CD2F71
:02400E0030FF81
:00000001FF
