:020000001028C6
:10000800FE00030E83120313A7000408A8000A08C1
:10001800A9007F08AA001D2B1128FF308316B600FF
:10002800B700B800B900BA00BB00BC00BD00BE00F4
:10003800BF00C000C100C200C300C400C500C600A4
:100048004430831384005D308B278312E0018301E1
:100058002D288B010730831681002E3085008601FC
:10006800831285018601EB3081000430920007304D
:100078009F00A1279327A0308B009B270830831669
:10008800B201AE01AF01B301B30AB5002430831247
:10009800DF00213083125F06031D6228DF01580349
:1000A80003195E28A030D801D80A8316AE000F3095
:1000B800AF00FC28DD01DE01D801FC281F305F06F7
:1000C80003196E2820305F0603196E2822305F0658
:1000D800031DCB289B27601C952822305F06031937
:1000E80095281F305F06031D8028083083163506C3
:1000F8000319802808308B28203083125F06031DDF
:100108004D2802308316350603194D280230B301F5
:10011800B30AB5008312DF014810A72783163508F4
:10012800FB28223048105F060319A82883163208D6
:10013800B000B1010310B00DB10D0310B00DB10D39
:100148000310B00DB10DAC2880308316B000B1019A
:100158001F3083125F06031DB3280130B428003016
:10016800B5008316300833244B21DF01601CC028FA
:100178008316B301B30AC428562145273C21932688
:1001880008308316B50021274818C828FA282330D4
:100198005F06031DDE289B27DF01023060148316EB
:1001A800B50083124810A7270230FA268316B30138
:1001B800B30AFC2824305F06031DFC28DF018316E0
:1001C8003308031DE8285F229B278030B5013324BC
:1001D8004B21601CF3288316B301B30AF728562174
:1001E80045273C21932608308316B5000830FA26A7
:1001F8008312C71F0F29601C092902308316350690
:10020800031D09290830B5000B29A1277427831677
:100218003508FA262929471F1729A127C823831635
:100228003508FA2629298316330803192929B30121
:10023800A1272030B200013033272030B20002302D
:1002480033272030B2000330332783162E082F04BB
:1002580003193A2901308312AD01AD0A562701303E
:100268008316AE020030031CAF03AF0293274D285C
:10027800831634088312C3000310C30C0310C30C85
:100288000310C30C43088316B20032080800831613
:10029800B400803A83120313031D54296014080024
:1002A80060100800831634088312B0000830B100CB
:1002B800BF34481C08004908A500441C72292508B9
:1002C8002925003A8312031303196F29C3304410F8
:1002D800C414C40508004810C7170800C41CB32973
:1002E800601C82292508F000CC305A25831203139C
:1002F8004408C3390438C400C4100800440CA000E2
:10030800200C0F39A1000830210203180800440C02
:10031800A000200C0F39031D95292508F000553041
:100328005A25831203132508F000440CA000200C62
:100338000F39BF3E8400831300085A258312031324
:10034800440C4F2244082006C3392006C400440C3C
:10035800A000200C0F39083A031D08008029441F0B
:10036800BD292508F00044305A258312031344138D
:100378000800450846040319CC290130C50200309D
:10038800031CC603C60245084604031944140800A2
:10039800471CD6292508F000BE305A2583120313BE
:1003A80047100800C71C4D2A572203180800A2014D
:1003B800F42957220318F829470CA000200C0F39FC
:1003C800B63E84002508B4258313800083120313E6
:1003D800470C4F2247082006C3392006C700A20A47
:1003E80003302202031CDD29470CA000200C0F3922
:1003F800093A031D08000830F000B630DB258316E3
:100408003E0603190A2A8312C717492A3608831297
:10041800A300831637088312A4002308DB000F30DB
:10042800DB050A30F600F7015B08F0000630F10141
:10043800F200F301C9267008023EF800710803189B
:10044800013E003EF90078247608DB000F30A30E49
:10045800A3052408DA008030DA05F030A40EA405DC
:100468007030A4052308A4045A080319472A24084D
:100478007F3CDC005B080A3CDB000A3A031D492A82
:10048800DB01DC0A492A2408DC00C710481047179A
:10049800080048100800A000200C0F39A000A00A8E
:1004A800A00DA00D0800470CA000200C0F39A100DA
:1004B80009302102080083124810D80AA1278316A0
:1004C800AD01AA01AA0AA801A901A90A83125F0815
:1004D8000319782A831628080319782A8312DF015A
:1004E8008316A801A901A90A1F3083125F06031DFC
:1004F8008A2ADF0183162D080319842AAD03862A68
:100508000F30AD008316A901A90AFE2A20305F0624
:10051800031D982ADF010F3083162D020318962A2F
:10052800AD0A862AAD01862A22305F06031DA02A5D
:10053800DF01A12793271A2B23305F06031DE52A25
:1005480083162A0BE52A8312DF01A7270230BD2470
:10055800003A0319E02AA7270230AD003330F5240A
:100568008316AB01A72783162B08A03E8400023010
:100578008A258313800008308316AB0A2B02031CDC
:10058800B62A07308312AD00A030FD258316270652
:10059800031DE02AA72783162D088312B90003102C
:1005A800B90D0310B90D0310390DB0000830B100B2
:1005B800A0300E27A727862A74278316A801A80A21
:1005C800FE2A243083125F068316031DFF2A2A0899
:1005D800031DFE2A8312DF018316AC012C08A03EFE
:1005E8008400FF30831380000830AC0A2C02031CFF
:1005F800F22ACE2A8316290803196A2AA030A901EB
:100608008312B50083162D083F268316AA002D08ED
:10061800932683162A08031D132B0130142B003050
:100628008312AD000130562793276A2AA727D803DB
:1006380008000B1DBD2B0B11EB3081070330550251
:100648000318D50155084A3E840083130008AB00FF
:100658003F397726D9002B1F332B5915342B5911C5
:1006680086015508013E84008227A6000508343912
:1006780026048500D50A59088600E0145D085E0442
:10068800031D4C2B5808031D502B83160516502BA1
:10069800FF30DD07031CDE038312AC015408031985
:1006A800572BD403BC2BDF01851E5E2B19302C146D
:1006B800D200642B5208031D632B2C10642BD20329
:1006C800051D6A2B1930AC14D300702B5308031D79
:1006D8006F2BAC10702BD30352080319772B1930EA
:1006E8005206031DBC2B530803197E2B19305306E1
:1006F800031DBC2B2C080319A82B56082C0603191C
:100708008B2BD001D101D7012C08D600A02B0030AB
:1007180051029630031950020318962BD00A031978
:10072800D10AA02B963050065104031DA02B570860
:10073800031DA02BD701D70A570BBC2B5608213E07
:10074800DF000230D700BA2B56080319B22B57081E
:10075800031DB22B56081E3EDF00B62B023057068B
:10076800031DBC2BD601D001D101D7012830D400FC
:100778005D212A08FF0029088A0028088400270E1E
:100788008300FE0E7E0E09000330BB00BA005A0833
:100798000319D32B2030B20003303327D72B0A306C
:1007A8005C020318D92BBB03BA03B8015A08031912
:1007B800E12B0A305C020318E52B64305C02031C51
:1007C800E72BB801B80A64305C02031CED2B01303A
:1007D800EE2B0030B6000A305C02031CF52B01300A
:1007E800F62B00303607B9000A30AD005C085B26EE
:1007F800B20039083B0233273808031D0A2CAD0123
:10080800AD0A39083B025627B801B80A0A30AD00CC
:100818005C08AE26DC00BA035C08031DE72B3A0827
:10082800031908003A08BB000A305B02031C232C9A
:100838003A0B232C0A30AD005B08AE26DB000A30E9
:100848005B02031C292C01302A2C0030B7000A3027
:10085800AD005B085B26B20037083B02332F8312DA
:10086800C000803A031D3F2C350803193D2CC001F8
:100878003F2C7830C0004008C2008030BE003508E8
:10088800031D4F2C78304206031D4C2CC201572CF7
:100898000830C207572C4208031D552C7830C20077
:1008A800572C0830C202A7274208B0000830B10010
:1008B80036304527BF01BF0AC1014108363E8400D2
:1008C8008313000FBF010830C10A4102031C612CC9
:1008D8003F08031D722C4208BE00762C42084006D1
:1008E800031D432C3E080800FB01F71F822CF60964
:1008F800F709F60A0319F70AFB01FB0AF91F8B2C03
:10090800F809F909F80A0319F90A0130FB06FC018C
:10091800FD01760877040319B02CFA01FA0AF71BCF
:10092800992C0310F60DF70D922C0310FC0DFD0DFC
:1009380077087902031DA22C76087802031CAC2CD8
:100948007608F8027708031CF903F9027C140310EF
:10095800F70CF60CFA0B992C7B080319B82CFC0938
:10096800FD09FC0A0319FD0A7D08F7007C08F6005A
:100978000800AE00B1003109AF00310883168504C4
:1009880006308312AD00AD0BC72C00008312031391
:100998002F0883168505A6308312AD00AD0BD22C27
:1009A800000083120313310883168504153083125F
:1009B800AD00AD0BDD2C00008312031305083105D3
:1009C8000319E82C0130E92C0030B0009530AD0057
:1009D800AD0BEC2CEF2C83120313300803190134F0
:1009E8000034AF002D08B3003309B100B2012F085D
:1009F800B000B201301C0D2D310883168505042D79
:100A0800052D0000232517308312AE00AE0B0A2DEA
:100A1800192D31088316850517308312AE00AE0BE9
:100A2800132D2325172D182D0000083083120313CA
:100A38000310B00CB20A320203180800FE2C83120D
:100A480003133308831685040800F100F4007409C1
:100A5800F2007408831685040630F000F00B322D7E
:100A680000007208831603138505A630F000F00B0A
:100A78003B2D000074088316031385041530F0001D
:100A8800F00B442D000083120313050874050319A5
:100A98004F2D0130502D0030F3009530F000F00B51
:100AA800532D562D7308031901340034F2007008D1
:100AB800F6007609F400F5017208F300F501731CDD
:100AC8006F2D8525672D682D000080251730F100D2
:100AD800F10B6C2D782D85251730F100F10B722D57
:100AE8008025762D772D000008300310F30CF50AC9
:100AF800750203180800632D76088316031385040E
:100B08000800740883160313850508008312AE00D5
:100B1800B2003209AF00B001B1012F088316850574
:100B2800952D962D972D831203133208831685046D
:100B38009D2D9E2D831203130310B00C050832055A
:100B4800031DB0171330AD00AD0BA82DAB2D083029
:100B580083120313B10A3102031C912D30080800D7
:100B6800F100F5007509F200F301F401720883162B
:100B780003138505BF2DC02DC12D750883160313DA
:100B88008504C62DC72D0310F30C83120313050823
:100B98007505031DF3171330F000F00BD12DD42D7C
:100BA8000830F40A7402031CBA2D73080800F10017
:100BB800F501F82D7108840083130008F200F10A8A
:100BC800F40175087206F3000130F3050310F50C03
:100BD8000310F20C73080319F32D8C30F506083056
:100BE800F40A7402031CE52DF003700FDE2D75085E
:100BF8000800B000B201192E300884000008AE00C9
:100C0800B00AB10132082E06AF000130AF0503105B
:100C1800B20C0310AE0C2F080319142E8C30B20638
:100C28000830B10A3102031C062EAD032D0F002E29
:100C380032080800792E7A2E7B2E7C2E7D2E7E2E71
:100C48007F2E802E812E822E862E862E862E862E12
:100C5800832E862E862E862E862E862E862E862EEF
:100C6800862E862E842E862E862E862E862E862EDE
:100C7800862E862E852E8312B700B6000310B60D79
:100C88000310B60D0310360DB0000830B10035085A
:100C98004527B80138083507B60084008313000FCC
:100CA80000340830B80A3802031801344E2EAF0059
:100CB8000830B000B1012F08AE0007300310AE0CA9
:100CC800FF3E0310031D632E310D2E04B1000310E7
:100CD800AF0D2D083102031C732E2D08B102B00B85
:100CE8005F2E31080800F000872EDB341834B33447
:100CF800BA347834EA34EB349834FB34FA34E334D5
:100D08002134203400347008840021300402031890
:100D1800003406308A001E3004078200080083125F
:100D2800B600A1270A30B60A3602031CA92E0A30DB
:100D3800AD003608AE26B200033033270A30AD00C6
:100D480036085B26B2000230AC2E3608B2000330FB
:100D58003327932FAE00B0012D080319C72EAF011A
:100D6800AF0AAD1BBA2E0310AD0DB42E0310B00D93
:100D78002D082E02031CC42E2D08AE0230140310B9
:100D8800AD0CAF0BBA2E30080800F401F501701C49
:100D9800D32E7208F4070318F50A7308F507031031
:100DA800F20DF30D0310F10CF00C70087104031D23
:100DB800CB2E7508F1007408F0000800AE000B088F
:100DC800AF008B132E0883169B0083122D08831601
:100DD8009A001C1555309D00AA309D009C141C11CA
:100DE8009C18F42E83122F088B0008008312AD0084
:100DF800C3304414C414C40578304417C500C33044
:100E0800C6014714C714C705C71347132D08C900DF
:100E180048140800B300B40131083402031808006C
:100E2800A72734083307B200840083130008AD00F5
:100E380034083007E226B40A102F8312AD00C330FD
:100E48004414C410C4054413C501C6014710C71093
:100E5800C705C71347132D08C90048140800B50073
:100E68003F303205B30035084C3E84008313000838
:100E7800C0393304B40035084C3E8400340880007F
:100E88000800B300B401310834020318080034081C
:100E98003307B200840034083007652783138000C5
:100EA800B40A472FAE002D0B5F2F2E084C3E84004E
:100EB8008313001708002E084C3E84008313001388
:100EC8000800AD000B08AE008B132D0883169B009D
:100ED8001C141A088312AF002E088B002F08080074
:100EE800A1270E30B200033033271830B200023089
:100EF80033271830B20001303327932F07308A0088
:100F08000408840A820700348034403401346400C1
:100F18008001840A04060319003404068C2F831206
:100F28004D08CA004E08CB004F08CC000800BC3062
:100F38008312DD000230DE00080022308312CD006B
:100F4800CE00CF0008008312E010E0180800A92F97
:02400E0010DFC1
:00000001FF
